{
  "contractName": "Trust",
  "abi": [
    {
      "inputs": [],
      "stateMutability": "nonpayable",
      "type": "constructor"
    },
    {
      "anonymous": false,
      "inputs": [
        {
          "indexed": true,
          "internalType": "address",
          "name": "by",
          "type": "address"
        },
        {
          "indexed": true,
          "internalType": "address",
          "name": "who",
          "type": "address"
        },
        {
          "indexed": false,
          "internalType": "uint256",
          "name": "when",
          "type": "uint256"
        }
      ],
      "name": "Registered",
      "type": "event"
    },
    {
      "inputs": [
        {
          "internalType": "string",
          "name": "",
          "type": "string"
        }
      ],
      "name": "KidsIndex",
      "outputs": [
        {
          "internalType": "uint256",
          "name": "",
          "type": "uint256"
        }
      ],
      "stateMutability": "view",
      "type": "function"
    },
    {
      "inputs": [
        {
          "internalType": "address payable",
          "name": "_kid",
          "type": "address"
        },
        {
          "internalType": "string",
          "name": "_name",
          "type": "string"
        },
        {
          "internalType": "uint256",
          "name": "_amount",
          "type": "uint256"
        },
        {
          "internalType": "uint256",
          "name": "_timeToMaturity",
          "type": "uint256"
        }
      ],
      "name": "addKid",
      "outputs": [],
      "stateMutability": "payable",
      "type": "function"
    },
    {
      "inputs": [
        {
          "internalType": "string",
          "name": "_name",
          "type": "string"
        }
      ],
      "name": "getKid",
      "outputs": [
        {
          "internalType": "address",
          "name": "child",
          "type": "address"
        },
        {
          "internalType": "string",
          "name": "name",
          "type": "string"
        },
        {
          "internalType": "uint256",
          "name": "amount",
          "type": "uint256"
        },
        {
          "internalType": "uint256",
          "name": "timeToMaturity",
          "type": "uint256"
        },
        {
          "internalType": "bool",
          "name": "paid",
          "type": "bool"
        }
      ],
      "stateMutability": "view",
      "type": "function"
    },
    {
      "inputs": [
        {
          "internalType": "string",
          "name": "_name",
          "type": "string"
        }
      ],
      "name": "withdrawAmount",
      "outputs": [],
      "stateMutability": "nonpayable",
      "type": "function"
    },
    {
      "inputs": [],
      "name": "getChildCount",
      "outputs": [
        {
          "internalType": "uint256",
          "name": "",
          "type": "uint256"
        }
      ],
      "stateMutability": "view",
      "type": "function"
    },
    {
      "inputs": [
        {
          "internalType": "string",
          "name": "_name",
          "type": "string"
        }
      ],
      "name": "showKidAmount",
      "outputs": [
        {
          "internalType": "uint256",
          "name": "",
          "type": "uint256"
        }
      ],
      "stateMutability": "view",
      "type": "function"
    },
    {
      "inputs": [],
      "name": "showContractAmount",
      "outputs": [
        {
          "internalType": "uint256",
          "name": "",
          "type": "uint256"
        }
      ],
      "stateMutability": "view",
      "type": "function"
    }
  ],
  "bytecode": "0x608060405273874069fa1eb16d44d622f2e0ca25eea172369bc16000806101000a81548173ffffffffffffffffffffffffffffffffffffffff021916908373ffffffffffffffffffffffffffffffffffffffff16021790555060006002556000600360006101000a81548160ff021916908360018111156100a9577f4e487b7100000000000000000000000000000000000000000000000000000000600052602160045260246000fd5b02179055503480156100ba57600080fd5b5033600160006101000a81548173ffffffffffffffffffffffffffffffffffffffff021916908373ffffffffffffffffffffffffffffffffffffffff16021790555061178b8061010b6000396000f3fe6080604052600436106100705760003560e01c80637a232e7b1161004e5780637a232e7b1461010f5780638abad6ec1461014c578063a2ed365b14610175578063f2535443146101a057610070565b80630f851d19146100755780632109db2f146100b25780633f12b8ad146100f3575b600080fd5b34801561008157600080fd5b5061009c60048036038101906100979190610ea4565b6101cb565b6040516100a991906112c7565b60405180910390f35b3480156100be57600080fd5b506100d960048036038101906100d49190610ea4565b610209565b6040516100ea95949392919061118d565b60405180910390f35b61010d60048036038101906101089190610e00565b610441565b005b34801561011b57600080fd5b5061013660048036038101906101319190610ea4565b610907565b60405161014391906112c7565b60405180910390f35b34801561015857600080fd5b50610173600480360381019061016e9190610ea4565b610935565b005b34801561018157600080fd5b5061018a610ca4565b60405161019791906112c7565b60405180910390f35b3480156101ac57600080fd5b506101b5610cae565b6040516101c291906112c7565b60405180910390f35b6000600460006005846040516101e19190611116565b9081526020016040518091039020548152602001908152602001600020600201549050919050565b600060606000806000600460006005886040516102269190611116565b908152602001604051809103902054815260200190815260200160002060010160405161025391906110ff565b604051809103902086805190602001201461026d57600080fd5b600460006005886040516102819190611116565b908152602001604051809103902054815260200190815260200160002060000160009054906101000a900473ffffffffffffffffffffffffffffffffffffffff16600460006005896040516102d69190611116565b90815260200160405180910390205481526020019081526020016000206001016004600060058a60405161030a9190611116565b9081526020016040518091039020548152602001908152602001600020600201546004600060058b60405161033f9190611116565b9081526020016040518091039020548152602001908152602001600020600301546004600060058c6040516103749190611116565b908152602001604051809103902054815260200190815260200160002060040160009054906101000a900460ff168380546103ae906114a7565b80601f01602080910402602001604051908101604052809291908181526020018280546103da906114a7565b80156104275780601f106103fc57610100808354040283529160200191610427565b820191906000526020600020905b81548152906001019060200180831161040a57829003601f168201915b505050505093509450945094509450945091939590929450565b6000814261044f919061137f565b90506000600160009054906101000a900473ffffffffffffffffffffffffffffffffffffffff1673ffffffffffffffffffffffffffffffffffffffff163373ffffffffffffffffffffffffffffffffffffffff16146104e3576040517f08c379a00000000000000000000000000000000000000000000000000000000081526004016104da90611227565b60405180910390fd5b6000600181111561051d577f4e487b7100000000000000000000000000000000000000000000000000000000600052602160045260246000fd5b60046000600254815260200190815260200160002060040160019054906101000a900460ff16600181111561057b577f4e487b7100000000000000000000000000000000000000000000000000000000600052602160045260246000fd5b146105bb576040517f08c379a00000000000000000000000000000000000000000000000000000000081526004016105b2906112a7565b60405180910390fd5b3373ffffffffffffffffffffffffffffffffffffffff168673ffffffffffffffffffffffffffffffffffffffff16141561062a576040517f08c379a000000000000000000000000000000000000000000000000000000000815260040161062190611287565b60405180910390fd5b60008054906101000a900473ffffffffffffffffffffffffffffffffffffffff1673ffffffffffffffffffffffffffffffffffffffff166323b872dd3330876040518463ffffffff1660e01b815260040161068793929190611156565b602060405180830381600087803b1580156106a157600080fd5b505af11580156106b5573d6000803e3d6000fd5b505050506040513d601f19601f820116820180604052508101906106d99190610e7b565b506040518060c001604052808773ffffffffffffffffffffffffffffffffffffffff1681526020018681526020018581526020018381526020018215158152602001600180811115610754577f4e487b7100000000000000000000000000000000000000000000000000000000600052602160045260246000fd5b81525060046000600254815260200190815260200160002060008201518160000160006101000a81548173ffffffffffffffffffffffffffffffffffffffff021916908373ffffffffffffffffffffffffffffffffffffffff16021790555060208201518160010190805190602001906107cf929190610cb6565b50604082015181600201556060820151816003015560808201518160040160006101000a81548160ff02191690831515021790555060a08201518160040160016101000a81548160ff02191690836001811115610855577f4e487b7100000000000000000000000000000000000000000000000000000000600052602160045260246000fd5b02179055509050506002546005866040516108709190611116565b9081526020016040518091039020819055508573ffffffffffffffffffffffffffffffffffffffff163373ffffffffffffffffffffffffffffffffffffffff167f199098452639b249bef6f727bc09ce903cece47ca72a8518bef9367ad39b6de7426040516108df91906112c7565b60405180910390a3600260008154809291906108fa9061150a565b9190505550505050505050565b6005818051602081018201805184825260208301602085012081835280955050505050506000915090505481565b60003390508073ffffffffffffffffffffffffffffffffffffffff16600460006005856040516109659190611116565b908152602001604051809103902054815260200190815260200160002060000160009054906101000a900473ffffffffffffffffffffffffffffffffffffffff1673ffffffffffffffffffffffffffffffffffffffff16146109fc576040517f08c379a00000000000000000000000000000000000000000000000000000000081526004016109f390611247565b60405180910390fd5b600060046000600585604051610a129190611116565b90815260200160405180910390205481526020019081526020016000206002015411610a73576040517f08c379a0000000000000000000000000000000000000000000000000000000008152600401610a6a90611207565b60405180910390fd5b6000151560046000600585604051610a8b9190611116565b908152602001604051809103902054815260200190815260200160002060040160009054906101000a900460ff16151514610afb576040517f08c379a0000000000000000000000000000000000000000000000000000000008152600401610af2906111e7565b60405180910390fd5b4260046000600585604051610b109190611116565b90815260200160405180910390205481526020019081526020016000206003015410610b71576040517f08c379a0000000000000000000000000000000000000000000000000000000008152600401610b6890611267565b60405180910390fd5b60008054906101000a900473ffffffffffffffffffffffffffffffffffffffff1673ffffffffffffffffffffffffffffffffffffffff1663a9059cbb8260046000600587604051610bc29190611116565b9081526020016040518091039020548152602001908152602001600020600201546040518363ffffffff1660e01b8152600401610c0092919061112d565b602060405180830381600087803b158015610c1a57600080fd5b505af1158015610c2e573d6000803e3d6000fd5b505050506040513d601f19601f82011682018060405250810190610c529190610e7b565b50600160046000600585604051610c699190611116565b908152602001604051809103902054815260200190815260200160002060040160006101000a81548160ff0219169083151502179055505050565b6000600254905090565b600047905090565b828054610cc2906114a7565b90600052602060002090601f016020900481019282610ce45760008555610d2b565b82601f10610cfd57805160ff1916838001178555610d2b565b82800160010185558215610d2b579182015b82811115610d2a578251825591602001919060010190610d0f565b5b509050610d389190610d3c565b5090565b5b80821115610d55576000816000905550600101610d3d565b5090565b6000610d6c610d6784611307565b6112e2565b905082815260208101848484011115610d8457600080fd5b610d8f848285611465565b509392505050565b600081359050610da681611710565b92915050565b600081519050610dbb81611727565b92915050565b600082601f830112610dd257600080fd5b8135610de2848260208601610d59565b91505092915050565b600081359050610dfa8161173e565b92915050565b60008060008060808587031215610e1657600080fd5b6000610e2487828801610d97565b945050602085013567ffffffffffffffff811115610e4157600080fd5b610e4d87828801610dc1565b9350506040610e5e87828801610deb565b9250506060610e6f87828801610deb565b91505092959194509250565b600060208284031215610e8d57600080fd5b6000610e9b84828501610dac565b91505092915050565b600060208284031215610eb657600080fd5b600082013567ffffffffffffffff811115610ed057600080fd5b610edc84828501610dc1565b91505092915050565b610eee8161142f565b82525050565b610efd816113d5565b82525050565b610f0c816113f9565b82525050565b60008154610f1f816114a7565b610f298186611358565b94506001821660008114610f445760018114610f5557610f88565b60ff19831686528186019350610f88565b610f5e85611338565b60005b83811015610f8057815481890152600182019150602081019050610f61565b838801955050505b50505092915050565b6000610f9c8261134d565b610fa68185611363565b9350610fb6818560208601611474565b610fbf816115e0565b840191505092915050565b6000610fd58261134d565b610fdf8185611374565b9350610fef818560208601611474565b80840191505092915050565b6000611008600d83611363565b9150611013826115f1565b602082019050919050565b600061102b601b83611363565b91506110368261161a565b602082019050919050565b600061104e601783611363565b915061105982611643565b602082019050919050565b6000611071601b83611363565b915061107c8261166c565b602082019050919050565b6000611094601e83611363565b915061109f82611695565b602082019050919050565b60006110b7601b83611363565b91506110c2826116be565b602082019050919050565b60006110da601183611363565b91506110e5826116e7565b602082019050919050565b6110f981611425565b82525050565b600061110b8284610f12565b915081905092915050565b60006111228284610fca565b915081905092915050565b60006040820190506111426000830185610ee5565b61114f60208301846110f0565b9392505050565b600060608201905061116b6000830186610ef4565b6111786020830185610ef4565b61118560408301846110f0565b949350505050565b600060a0820190506111a26000830188610ef4565b81810360208301526111b48187610f91565b90506111c360408301866110f0565b6111d060608301856110f0565b6111dd6080830184610f03565b9695505050505050565b6000602082019050818103600083015261120081610ffb565b9050919050565b600060208201905081810360008301526112208161101e565b9050919050565b6000602082019050818103600083015261124081611041565b9050919050565b6000602082019050818103600083015261126081611064565b9050919050565b6000602082019050818103600083015261128081611087565b9050919050565b600060208201905081810360008301526112a0816110aa565b9050919050565b600060208201905081810360008301526112c0816110cd565b9050919050565b60006020820190506112dc60008301846110f0565b92915050565b60006112ec6112fd565b90506112f882826114d9565b919050565b6000604051905090565b600067ffffffffffffffff821115611322576113216115b1565b5b61132b826115e0565b9050602081019050919050565b60008190508160005260206000209050919050565b600081519050919050565b600081905092915050565b600082825260208201905092915050565b600081905092915050565b600061138a82611425565b915061139583611425565b9250827fffffffffffffffffffffffffffffffffffffffffffffffffffffffffffffffff038211156113ca576113c9611553565b5b828201905092915050565b60006113e082611405565b9050919050565b60006113f282611405565b9050919050565b60008115159050919050565b600073ffffffffffffffffffffffffffffffffffffffff82169050919050565b6000819050919050565b600061143a82611441565b9050919050565b600061144c82611453565b9050919050565b600061145e82611405565b9050919050565b82818337600083830152505050565b60005b83811015611492578082015181840152602081019050611477565b838111156114a1576000848401525b50505050565b600060028204905060018216806114bf57607f821691505b602082108114156114d3576114d2611582565b5b50919050565b6114e2826115e0565b810181811067ffffffffffffffff82111715611501576115006115b1565b5b80604052505050565b600061151582611425565b91507fffffffffffffffffffffffffffffffffffffffffffffffffffffffffffffffff82141561154857611547611553565b5b600182019050919050565b7f4e487b7100000000000000000000000000000000000000000000000000000000600052601160045260246000fd5b7f4e487b7100000000000000000000000000000000000000000000000000000000600052602260045260246000fd5b7f4e487b7100000000000000000000000000000000000000000000000000000000600052604160045260246000fd5b6000601f19601f8301169050919050565b7f5061696420416c72656164792e00000000000000000000000000000000000000600082015250565b7f43616e6e6f74207769746864726177207a65726f2076616c75652e0000000000600082015250565b7f4f6e6c79206f776e65722063616e20616464206b69642e000000000000000000600082015250565b7f4f6e6c792076616c6964206b69642063616e2077697468647261770000000000600082015250565b7f536f72727920596f752063616e6e6f74207769746864726177206e6f772e0000600082015250565b7f4475646520596f752063616e742061646420796f757273656c662e0000000000600082015250565b7f4b696420616c7265616479206578697374000000000000000000000000000000600082015250565b611719816113e7565b811461172457600080fd5b50565b611730816113f9565b811461173b57600080fd5b50565b61174781611425565b811461175257600080fd5b5056fea26469706673582212200e086ff0796dd4a9aca352f741b4205851f79d82c066bfb71a4fc003c12fab3164736f6c63430008030033",
  "immutableReferences": {},
  "source": "// SPDX-License-Identifier: MIT\npragma solidity >=0.8.0 <0.9.0;\n\ninterface IERC20Token {\n  function transfer(address, uint256) external returns (bool);\n  function approve(address, uint256) external returns (bool);\n  function transferFrom(address, address, uint256) external returns (bool);\n  function totalSupply() external view returns (uint256);\n  function balanceOf(address) external view returns (uint256);\n  function allowance(address, address) external view returns (uint256);\n\n  event Transfer(address indexed from, address indexed to, uint256 value);\n  event Approval(address indexed owner, address indexed spender, uint256 value);\n}\n\ncontract Trust{\n\n    address internal cUsdTokenAddress = 0x874069Fa1Eb16D44d622F2e0Ca25eeA172369bC1;\n    address internal admin; // Owner of the contract\n    uint internal childCount = 0;\n\n    //an enumeration to make sure kid is not added twice\n    enum Status {NOT_ADDED, IS_ADDED}\n    Status status = Status.NOT_ADDED;\n\n    //event to trigger that a kid has been registered\n    event Registered (\n        address indexed by,\n        address indexed who,\n        uint when\n        );\n\n    //Kid struct type to store kid needed attributes\n    struct Kid {\n\n        address payable child;\n        string name;\n        uint amount;\n        uint timeToMaturity;\n        bool paid;\n        Status status;\n    }\n\n    mapping (uint => Kid) internal Kids;\n    mapping (string => uint) public KidsIndex;\n\n\n  constructor() {\n    admin = msg.sender;\n  }\n\n    function addKid (address payable _kid,\n                    string memory _name,\n                    uint _amount,\n                    uint _timeToMaturity) external payable {\n\n        uint timeToMaturity = block.timestamp + _timeToMaturity;\n        bool _paid = false;\n\n        require (msg.sender == admin, \"Only owner can add kid.\");\n        require (Kids[childCount].status == Status.NOT_ADDED, \"Kid already exist\");\n        require ( _kid != msg.sender, \"Dude You cant add yourself.\");\n\n        IERC20Token(cUsdTokenAddress).transferFrom(msg.sender, address(this), _amount);\n\n        Kids[childCount] = Kid(payable(_kid), _name, _amount, timeToMaturity, _paid, Status.IS_ADDED);\n        KidsIndex[_name] = childCount;\n\n\n        emit Registered(msg.sender, _kid, block.timestamp);\n        childCount++;\n    }\n\n    function getKid(string memory _name) view external returns(\n        address child,\n        string memory name,\n        uint amount,\n        uint timeToMaturity,\n        bool paid ){\n\n        require (keccak256(bytes(_name)) == keccak256(bytes(Kids[KidsIndex[_name]].name)));\n        return (\n            Kids[KidsIndex[_name]].child,\n            Kids[KidsIndex[_name]].name,\n            Kids[KidsIndex[_name]].amount,\n            Kids[KidsIndex[_name]].timeToMaturity,\n            Kids[KidsIndex[_name]].paid\n            );\n    }\n\n    function withdrawAmount(string memory _name) external {\n\n        address _child = msg.sender;\n\n        //only the kid can withdraw his money deposited\n        require (Kids[KidsIndex[_name]].child == _child, \"Only valid kid can withdraw\");\n        require (Kids[KidsIndex[_name]].amount > 0, \"Cannot withdraw zero value.\");\n        require (Kids[KidsIndex[_name]].paid == false, \"Paid Already.\");\n        require (Kids[KidsIndex[_name]].timeToMaturity < block.timestamp, \"Sorry You cannot withdraw now.\");\n\n        IERC20Token(cUsdTokenAddress).transfer(payable(_child), Kids[KidsIndex[_name]].amount);\n        Kids[KidsIndex[_name]].paid = true;\n    }\n\n    function getChildCount() view external returns(uint){\n        return childCount;\n    }\n\n    function showKidAmount(string memory _name) view external returns(uint){\n        return Kids[KidsIndex[_name]].amount;\n    }\n\n    function showContractAmount() view external returns(uint){\n        return address(this).balance;\n    }\n\n\n}\n",
  "sourcePath": "/home/abbracx/Desktop/celo-trust-dapp/contracts/Trust.sol",
  "compiler": {
    "name": "solc",
    "version": "0.8.3+commit.8d00100c.Emscripten.clang"
  },
  "schemaVersion": "3.3.4",
  "updatedAt": "2021-08-21T15:39:56.535Z",
  "networkType": "ethereum",
  "devdoc": {
    "kind": "dev",
    "methods": {},
    "version": 1
  },
  "userdoc": {
    "kind": "user",
    "methods": {},
    "version": 1
  }
}