{
  "contractName": "Trust",
  "abi": [
    {
      "inputs": [
        {
          "internalType": "address",
          "name": "_admin",
          "type": "address"
        }
      ],
      "stateMutability": "nonpayable",
      "type": "constructor"
    },
    {
      "anonymous": false,
      "inputs": [
        {
          "indexed": true,
          "internalType": "address",
          "name": "by",
          "type": "address"
        },
        {
          "indexed": true,
          "internalType": "address",
          "name": "who",
          "type": "address"
        },
        {
          "indexed": false,
          "internalType": "uint256",
          "name": "when",
          "type": "uint256"
        }
      ],
      "name": "Registered",
      "type": "event"
    },
    {
      "inputs": [
        {
          "internalType": "address",
          "name": "",
          "type": "address"
        }
      ],
      "name": "Kids",
      "outputs": [
        {
          "internalType": "uint256",
          "name": "amount",
          "type": "uint256"
        },
        {
          "internalType": "uint256",
          "name": "timeToMaturity",
          "type": "uint256"
        },
        {
          "internalType": "bool",
          "name": "paid",
          "type": "bool"
        },
        {
          "internalType": "enum Trust.Status",
          "name": "status",
          "type": "uint8"
        }
      ],
      "stateMutability": "view",
      "type": "function",
      "constant": true
    },
    {
      "inputs": [],
      "name": "admin",
      "outputs": [
        {
          "internalType": "address",
          "name": "",
          "type": "address"
        }
      ],
      "stateMutability": "view",
      "type": "function",
      "constant": true
    },
    {
      "inputs": [
        {
          "internalType": "address",
          "name": "_kid",
          "type": "address"
        },
        {
          "internalType": "uint256",
          "name": "_timeToMaturity",
          "type": "uint256"
        }
      ],
      "name": "addKid",
      "outputs": [],
      "stateMutability": "payable",
      "type": "function",
      "payable": true
    },
    {
      "inputs": [],
      "name": "showKidAmount",
      "outputs": [
        {
          "internalType": "uint256",
          "name": "",
          "type": "uint256"
        },
        {
          "internalType": "address",
          "name": "",
          "type": "address"
        }
      ],
      "stateMutability": "view",
      "type": "function",
      "constant": true
    },
    {
      "inputs": [],
      "name": "withdrawAmount",
      "outputs": [
        {
          "internalType": "bool",
          "name": "",
          "type": "bool"
        }
      ],
      "stateMutability": "nonpayable",
      "type": "function"
    }
  ],
  "bytecode": "0x608060405260008060146101000a81548160ff0219169083600181111561004f577f4e487b7100000000000000000000000000000000000000000000000000000000600052602160045260246000fd5b021790555034801561006057600080fd5b50604051610f4b380380610f4b833981810160405281019061008291906100dd565b806000806101000a81548173ffffffffffffffffffffffffffffffffffffffff021916908373ffffffffffffffffffffffffffffffffffffffff1602179055505061014f565b6000815190506100d781610138565b92915050565b6000602082840312156100ef57600080fd5b60006100fd848285016100c8565b91505092915050565b600061011182610118565b9050919050565b600073ffffffffffffffffffffffffffffffffffffffff82169050919050565b61014181610106565b811461014c57600080fd5b50565b610ded8061015e6000396000f3fe60806040526004361061004a5760003560e01c80632e420bc11461004f57806340990e301461008f578063534844a2146100ab578063f3e065db146100d6578063f851a44014610102575b600080fd5b34801561005b57600080fd5b5061007660048036038101906100719190610815565b61012d565b6040516100869493929190610afa565b60405180910390f35b6100a960048036038101906100a4919061083e565b610177565b005b3480156100b757600080fd5b506100c06104b0565b6040516100cd91906109db565b60405180910390f35b3480156100e257600080fd5b506100eb610778565b6040516100f9929190610ad1565b60405180910390f35b34801561010e57600080fd5b506101176107c7565b60405161012491906109c0565b60405180910390f35b60016020528060005260406000206000915090508060000154908060010154908060020160009054906101000a900460ff16908060020160019054906101000a900460ff16905084565b6000600190506000824261018b9190610b5b565b905060008054906101000a900473ffffffffffffffffffffffffffffffffffffffff1673ffffffffffffffffffffffffffffffffffffffff163373ffffffffffffffffffffffffffffffffffffffff161461021b576040517f08c379a000000000000000000000000000000000000000000000000000000000815260040161021290610a36565b60405180910390fd5b816001811115610254577f4e487b7100000000000000000000000000000000000000000000000000000000600052602160045260246000fd5b600160008673ffffffffffffffffffffffffffffffffffffffff1673ffffffffffffffffffffffffffffffffffffffff16815260200190815260200160002060020160019054906101000a900460ff1660018111156102dc577f4e487b7100000000000000000000000000000000000000000000000000000000600052602160045260246000fd5b141561031d576040517f08c379a000000000000000000000000000000000000000000000000000000000815260040161031490610a96565b60405180910390fd5b6040518060800160405280348152602001828152602001600015158152602001836001811115610376577f4e487b7100000000000000000000000000000000000000000000000000000000600052602160045260246000fd5b815250600160008673ffffffffffffffffffffffffffffffffffffffff1673ffffffffffffffffffffffffffffffffffffffff168152602001908152602001600020600082015181600001556020820151816001015560408201518160020160006101000a81548160ff02191690831515021790555060608201518160020160016101000a81548160ff0219169083600181111561043d577f4e487b7100000000000000000000000000000000000000000000000000000000600052602160045260246000fd5b02179055509050508373ffffffffffffffffffffffffffffffffffffffff163373ffffffffffffffffffffffffffffffffffffffff167f199098452639b249bef6f727bc09ce903cece47ca72a8518bef9367ad39b6de7426040516104a29190610ab6565b60405180910390a350505050565b60008060003390506000600160008373ffffffffffffffffffffffffffffffffffffffff1673ffffffffffffffffffffffffffffffffffffffff16815260200190815260200160002060405180608001604052908160008201548152602001600182015481526020016002820160009054906101000a900460ff161515151581526020016002820160019054906101000a900460ff16600181111561057e577f4e487b7100000000000000000000000000000000000000000000000000000000600052602160045260246000fd5b60018111156105b6577f4e487b7100000000000000000000000000000000000000000000000000000000600052602160045260246000fd5b8152505090506000816000015111610603576040517f08c379a00000000000000000000000000000000000000000000000000000000081526004016105fa90610a16565b60405180910390fd5b60001515816040015115151461064e576040517f08c379a0000000000000000000000000000000000000000000000000000000008152600401610645906109f6565b60405180910390fd5b4281602001511115610695576040517f08c379a000000000000000000000000000000000000000000000000000000000815260040161068c90610a56565b60405180910390fd5b80600001519250600081600001818152505060008273ffffffffffffffffffffffffffffffffffffffff16846040516106cd906109ab565b60006040518083038185875af1925050503d806000811461070a576040519150601f19603f3d011682016040523d82523d6000602084013e61070f565b606091505b5050905080610753576040517f08c379a000000000000000000000000000000000000000000000000000000000815260040161074a90610a76565b60405180910390fd5b6001826040019015159081151581525050801515826040015115151494505050505090565b600080600160003373ffffffffffffffffffffffffffffffffffffffff1673ffffffffffffffffffffffffffffffffffffffff1681526020019081526020016000206000015433915091509091565b60008054906101000a900473ffffffffffffffffffffffffffffffffffffffff1681565b6000813590506107fa81610d89565b92915050565b60008135905061080f81610da0565b92915050565b60006020828403121561082757600080fd5b6000610835848285016107eb565b91505092915050565b6000806040838503121561085157600080fd5b600061085f858286016107eb565b925050602061087085828601610800565b9150509250929050565b61088381610bb1565b82525050565b61089281610bc3565b82525050565b6108a181610c0c565b82525050565b60006108b4600d83610b4a565b91506108bf82610c7c565b602082019050919050565b60006108d7601b83610b4a565b91506108e282610ca5565b602082019050919050565b60006108fa601783610b4a565b915061090582610cce565b602082019050919050565b600061091d601a83610b4a565b915061092882610cf7565b602082019050919050565b6000610940600083610b3f565b915061094b82610d20565b600082019050919050565b6000610963601083610b4a565b915061096e82610d23565b602082019050919050565b6000610986601183610b4a565b915061099182610d4c565b602082019050919050565b6109a581610c02565b82525050565b60006109b682610933565b9150819050919050565b60006020820190506109d5600083018461087a565b92915050565b60006020820190506109f06000830184610889565b92915050565b60006020820190508181036000830152610a0f816108a7565b9050919050565b60006020820190508181036000830152610a2f816108ca565b9050919050565b60006020820190508181036000830152610a4f816108ed565b9050919050565b60006020820190508181036000830152610a6f81610910565b9050919050565b60006020820190508181036000830152610a8f81610956565b9050919050565b60006020820190508181036000830152610aaf81610979565b9050919050565b6000602082019050610acb600083018461099c565b92915050565b6000604082019050610ae6600083018561099c565b610af3602083018461087a565b9392505050565b6000608082019050610b0f600083018761099c565b610b1c602083018661099c565b610b296040830185610889565b610b366060830184610898565b95945050505050565b600081905092915050565b600082825260208201905092915050565b6000610b6682610c02565b9150610b7183610c02565b9250827fffffffffffffffffffffffffffffffffffffffffffffffffffffffffffffffff03821115610ba657610ba5610c1e565b5b828201905092915050565b6000610bbc82610be2565b9050919050565b60008115159050919050565b6000819050610bdd82610d75565b919050565b600073ffffffffffffffffffffffffffffffffffffffff82169050919050565b6000819050919050565b6000610c1782610bcf565b9050919050565b7f4e487b7100000000000000000000000000000000000000000000000000000000600052601160045260246000fd5b7f4e487b7100000000000000000000000000000000000000000000000000000000600052602160045260246000fd5b7f5061696420416c72656164792e00000000000000000000000000000000000000600082015250565b7f43616e6e6f74207769746864726177207a65726f2076616c75652e0000000000600082015250565b7f4f6e6c79206f776e65722063616e20616464206b69642e000000000000000000600082015250565b7f536f72727920596f752063616e6e6f742077697468647261772e000000000000600082015250565b50565b7f5472616e73666572206661696c65642e00000000000000000000000000000000600082015250565b7f4b696420616c7265616479206578697374000000000000000000000000000000600082015250565b60028110610d8657610d85610c4d565b5b50565b610d9281610bb1565b8114610d9d57600080fd5b50565b610da981610c02565b8114610db457600080fd5b5056fea2646970667358221220d6aca65e7da3da84b636f3df4b24b9424a837c61b90005e59ca4370a6148c69a64736f6c63430008030033",
  "immutableReferences": {},
  "source": "// SPDX-License-Identifier: MIT\npragma solidity ^0.8.1;\n\n/**\n * The Trust contract does this and that...\n */\ncontract Trust {\n\n    address public admin;\n    enum Status {NOT_ADDED, IS_ADDED}\n\n    Status status = Status.NOT_ADDED;\n\n    event Registered (\n        address indexed by,\n        address indexed who,\n        uint when\n        );\n\n    struct Kid {\n        uint amount;\n        uint timeToMaturity;\n        bool paid;\n        Status status;\n    }\n\n    mapping (address => Kid) public Kids;\n    Kid [] list_of_kids;\n  constructor(address _admin) {\n        admin = _admin;\n  }\n\n  function addKid (address _kid, uint _timeToMaturity) external payable {\n\n        Status ADDED = Status.IS_ADDED;\n        uint timeToMaturity = block.timestamp + _timeToMaturity;\n\n        require (msg.sender == admin, \"Only owner can add kid.\");\n        require (Kids[_kid].status != ADDED, \"Kid already exist\");\n\n        Kids[_kid] = Kid(msg.value, timeToMaturity, false, ADDED);\n        emit Registered(msg.sender, _kid, block.timestamp);\n  }\n\n  function showKidAmount () external view returns(uint, address) {\n        return (Kids[msg.sender].amount, msg.sender);\n  }\n\n\n  function withdrawAmount() external returns(bool)  {\n\n        uint amount;\n        address _kid = msg.sender;\n        Kid memory kid = Kids[_kid];\n\n\n        require (kid.amount > 0, \"Cannot withdraw zero value.\");\n        require (kid.paid == false, \"Paid Already.\");\n        require (kid.timeToMaturity <= block.timestamp, \"Sorry You cannot withdraw.\");\n\n        // payable(_kid).transfer(kid.amount);\n        amount = kid.amount;\n        kid.amount = 0;\n        (bool success, ) = payable(_kid).call{value:amount}(\"\");\n        require(success, \"Transfer failed.\");\n        kid.paid = true;\n        return kid.paid == success;\n  }\n\n\n}\n\n",
  "sourcePath": "/home/abbracx/Desktop/EatTheBlock/contracts/Trust.sol",
  "compiler": {
    "name": "solc",
    "version": "0.8.3+commit.8d00100c.Emscripten.clang"
  },
  "schemaVersion": "3.3.4",
  "updatedAt": "2021-06-14T12:20:21.157Z",
  "networkType": "ethereum",
  "devdoc": {
    "kind": "dev",
    "methods": {},
    "version": 1
  },
  "userdoc": {
    "kind": "user",
    "methods": {},
    "notice": "The Trust contract does this and that...",
    "version": 1
  }
}