{
  "contractName": "Trust",
  "abi": [
    {
      "inputs": [],
      "stateMutability": "nonpayable",
      "type": "constructor"
    },
    {
      "anonymous": false,
      "inputs": [
        {
          "indexed": true,
          "internalType": "address",
          "name": "by",
          "type": "address"
        },
        {
          "indexed": true,
          "internalType": "address",
          "name": "who",
          "type": "address"
        },
        {
          "indexed": false,
          "internalType": "uint256",
          "name": "when",
          "type": "uint256"
        }
      ],
      "name": "Registered",
      "type": "event"
    },
    {
      "inputs": [
        {
          "internalType": "string",
          "name": "",
          "type": "string"
        }
      ],
      "name": "KidsIndex",
      "outputs": [
        {
          "internalType": "uint256",
          "name": "",
          "type": "uint256"
        }
      ],
      "stateMutability": "view",
      "type": "function",
      "constant": true
    },
    {
      "inputs": [
        {
          "internalType": "address payable",
          "name": "_kid",
          "type": "address"
        },
        {
          "internalType": "string",
          "name": "_name",
          "type": "string"
        },
        {
          "internalType": "uint256",
          "name": "_amount",
          "type": "uint256"
        },
        {
          "internalType": "uint256",
          "name": "_timeToMaturity",
          "type": "uint256"
        }
      ],
      "name": "addKid",
      "outputs": [],
      "stateMutability": "payable",
      "type": "function",
      "payable": true
    },
    {
      "inputs": [
        {
          "internalType": "string",
          "name": "_name",
          "type": "string"
        }
      ],
      "name": "getKid",
      "outputs": [
        {
          "internalType": "address",
          "name": "child",
          "type": "address"
        },
        {
          "internalType": "string",
          "name": "name",
          "type": "string"
        },
        {
          "internalType": "uint256",
          "name": "amount",
          "type": "uint256"
        },
        {
          "internalType": "uint256",
          "name": "timeToMaturity",
          "type": "uint256"
        },
        {
          "internalType": "bool",
          "name": "paid",
          "type": "bool"
        }
      ],
      "stateMutability": "view",
      "type": "function",
      "constant": true
    },
    {
      "inputs": [
        {
          "internalType": "uint256",
          "name": "_index",
          "type": "uint256"
        }
      ],
      "name": "getKid",
      "outputs": [
        {
          "internalType": "address",
          "name": "child",
          "type": "address"
        },
        {
          "internalType": "string",
          "name": "name",
          "type": "string"
        },
        {
          "internalType": "uint256",
          "name": "amount",
          "type": "uint256"
        },
        {
          "internalType": "uint256",
          "name": "timeToMaturity",
          "type": "uint256"
        },
        {
          "internalType": "bool",
          "name": "paid",
          "type": "bool"
        }
      ],
      "stateMutability": "view",
      "type": "function",
      "constant": true
    },
    {
      "inputs": [
        {
          "internalType": "string",
          "name": "_name",
          "type": "string"
        }
      ],
      "name": "withdrawAmount",
      "outputs": [],
      "stateMutability": "nonpayable",
      "type": "function"
    },
    {
      "inputs": [],
      "name": "getChildCount",
      "outputs": [
        {
          "internalType": "uint256",
          "name": "",
          "type": "uint256"
        }
      ],
      "stateMutability": "view",
      "type": "function",
      "constant": true
    },
    {
      "inputs": [
        {
          "internalType": "string",
          "name": "_name",
          "type": "string"
        }
      ],
      "name": "showKidAmount",
      "outputs": [
        {
          "internalType": "uint256",
          "name": "",
          "type": "uint256"
        }
      ],
      "stateMutability": "view",
      "type": "function",
      "constant": true
    },
    {
      "inputs": [],
      "name": "showContractAmount",
      "outputs": [
        {
          "internalType": "uint256",
          "name": "",
          "type": "uint256"
        }
      ],
      "stateMutability": "view",
      "type": "function",
      "constant": true
    },
    {
      "inputs": [],
      "name": "getAdmin",
      "outputs": [
        {
          "internalType": "address",
          "name": "",
          "type": "address"
        }
      ],
      "stateMutability": "view",
      "type": "function",
      "constant": true
    }
  ],
  "bytecode": "0x608060405273874069fa1eb16d44d622f2e0ca25eea172369bc16000806101000a81548173ffffffffffffffffffffffffffffffffffffffff021916908373ffffffffffffffffffffffffffffffffffffffff16021790555060006002556000600360006101000a81548160ff021916908360018111156100a9577f4e487b7100000000000000000000000000000000000000000000000000000000600052602160045260246000fd5b02179055503480156100ba57600080fd5b5033600160006101000a81548173ffffffffffffffffffffffffffffffffffffffff021916908373ffffffffffffffffffffffffffffffffffffffff1602179055506119c28061010b6000396000f3fe6080604052600436106100865760003560e01c80637a232e7b116100595780637a232e7b146101505780638abad6ec1461018d578063943996be146101b6578063a2ed365b146101f7578063f25354431461022257610086565b80630f851d191461008b5780632109db2f146100c85780633f12b8ad146101095780636e9960c314610125575b600080fd5b34801561009757600080fd5b506100b260048036038101906100ad9190611097565b61024d565b6040516100bf91906114fe565b60405180910390f35b3480156100d457600080fd5b506100ef60048036038101906100ea9190611097565b61028b565b60405161010095949392919061139b565b60405180910390f35b610123600480360381019061011e9190610ff3565b6104c3565b005b34801561013157600080fd5b5061013a610989565b6040516101479190611349565b60405180910390f35b34801561015c57600080fd5b5061017760048036038101906101729190611097565b6109b3565b60405161018491906114fe565b60405180910390f35b34801561019957600080fd5b506101b460048036038101906101af9190611097565b6109e1565b005b3480156101c257600080fd5b506101dd60048036038101906101d891906110d8565b610d50565b6040516101ee95949392919061139b565b60405180910390f35b34801561020357600080fd5b5061020c610e97565b60405161021991906114fe565b60405180910390f35b34801561022e57600080fd5b50610237610ea1565b60405161024491906114fe565b60405180910390f35b6000600460006005846040516102639190611332565b9081526020016040518091039020548152602001908152602001600020600201549050919050565b600060606000806000600460006005886040516102a89190611332565b90815260200160405180910390205481526020019081526020016000206001016040516102d5919061131b565b60405180910390208680519060200120146102ef57600080fd5b600460006005886040516103039190611332565b908152602001604051809103902054815260200190815260200160002060000160009054906101000a900473ffffffffffffffffffffffffffffffffffffffff16600460006005896040516103589190611332565b90815260200160405180910390205481526020019081526020016000206001016004600060058a60405161038c9190611332565b9081526020016040518091039020548152602001908152602001600020600201546004600060058b6040516103c19190611332565b9081526020016040518091039020548152602001908152602001600020600301546004600060058c6040516103f69190611332565b908152602001604051809103902054815260200190815260200160002060040160009054906101000a900460ff16838054610430906116de565b80601f016020809104026020016040519081016040528092919081815260200182805461045c906116de565b80156104a95780601f1061047e576101008083540402835291602001916104a9565b820191906000526020600020905b81548152906001019060200180831161048c57829003601f168201915b505050505093509450945094509450945091939590929450565b600081426104d191906115b6565b90506000600160009054906101000a900473ffffffffffffffffffffffffffffffffffffffff1673ffffffffffffffffffffffffffffffffffffffff163373ffffffffffffffffffffffffffffffffffffffff1614610565576040517f08c379a000000000000000000000000000000000000000000000000000000000815260040161055c9061145e565b60405180910390fd5b6000600181111561059f577f4e487b7100000000000000000000000000000000000000000000000000000000600052602160045260246000fd5b60046000600254815260200190815260200160002060040160019054906101000a900460ff1660018111156105fd577f4e487b7100000000000000000000000000000000000000000000000000000000600052602160045260246000fd5b1461063d576040517f08c379a0000000000000000000000000000000000000000000000000000000008152600401610634906114de565b60405180910390fd5b3373ffffffffffffffffffffffffffffffffffffffff168673ffffffffffffffffffffffffffffffffffffffff1614156106ac576040517f08c379a00000000000000000000000000000000000000000000000000000000081526004016106a3906114be565b60405180910390fd5b60008054906101000a900473ffffffffffffffffffffffffffffffffffffffff1673ffffffffffffffffffffffffffffffffffffffff166323b872dd3330876040518463ffffffff1660e01b815260040161070993929190611364565b602060405180830381600087803b15801561072357600080fd5b505af1158015610737573d6000803e3d6000fd5b505050506040513d601f19601f8201168201806040525081019061075b919061106e565b506040518060c001604052808773ffffffffffffffffffffffffffffffffffffffff16815260200186815260200185815260200183815260200182151581526020016001808111156107d6577f4e487b7100000000000000000000000000000000000000000000000000000000600052602160045260246000fd5b81525060046000600254815260200190815260200160002060008201518160000160006101000a81548173ffffffffffffffffffffffffffffffffffffffff021916908373ffffffffffffffffffffffffffffffffffffffff1602179055506020820151816001019080519060200190610851929190610ea9565b50604082015181600201556060820151816003015560808201518160040160006101000a81548160ff02191690831515021790555060a08201518160040160016101000a81548160ff021916908360018111156108d7577f4e487b7100000000000000000000000000000000000000000000000000000000600052602160045260246000fd5b02179055509050506002546005866040516108f29190611332565b9081526020016040518091039020819055508573ffffffffffffffffffffffffffffffffffffffff163373ffffffffffffffffffffffffffffffffffffffff167f199098452639b249bef6f727bc09ce903cece47ca72a8518bef9367ad39b6de74260405161096191906114fe565b60405180910390a36002600081548092919061097c90611741565b9190505550505050505050565b6000600160009054906101000a900473ffffffffffffffffffffffffffffffffffffffff16905090565b6005818051602081018201805184825260208301602085012081835280955050505050506000915090505481565b60003390508073ffffffffffffffffffffffffffffffffffffffff1660046000600585604051610a119190611332565b908152602001604051809103902054815260200190815260200160002060000160009054906101000a900473ffffffffffffffffffffffffffffffffffffffff1673ffffffffffffffffffffffffffffffffffffffff1614610aa8576040517f08c379a0000000000000000000000000000000000000000000000000000000008152600401610a9f9061147e565b60405180910390fd5b600060046000600585604051610abe9190611332565b90815260200160405180910390205481526020019081526020016000206002015411610b1f576040517f08c379a0000000000000000000000000000000000000000000000000000000008152600401610b169061143e565b60405180910390fd5b6000151560046000600585604051610b379190611332565b908152602001604051809103902054815260200190815260200160002060040160009054906101000a900460ff16151514610ba7576040517f08c379a0000000000000000000000000000000000000000000000000000000008152600401610b9e9061141e565b60405180910390fd5b4260046000600585604051610bbc9190611332565b90815260200160405180910390205481526020019081526020016000206003015410610c1d576040517f08c379a0000000000000000000000000000000000000000000000000000000008152600401610c149061149e565b60405180910390fd5b60008054906101000a900473ffffffffffffffffffffffffffffffffffffffff1673ffffffffffffffffffffffffffffffffffffffff1663a9059cbb8260046000600587604051610c6e9190611332565b9081526020016040518091039020548152602001908152602001600020600201546040518363ffffffff1660e01b8152600401610cac9291906113f5565b602060405180830381600087803b158015610cc657600080fd5b505af1158015610cda573d6000803e3d6000fd5b505050506040513d601f19601f82011682018060405250810190610cfe919061106e565b50600160046000600585604051610d159190611332565b908152602001604051809103902054815260200190815260200160002060040160006101000a81548160ff0219169083151502179055505050565b6000606060008060006004600087815260200190815260200160002060000160009054906101000a900473ffffffffffffffffffffffffffffffffffffffff16600460008881526020019081526020016000206001016004600089815260200190815260200160002060020154600460008a815260200190815260200160002060030154600460008b815260200190815260200160002060040160009054906101000a900460ff16838054610e04906116de565b80601f0160208091040260200160405190810160405280929190818152602001828054610e30906116de565b8015610e7d5780601f10610e5257610100808354040283529160200191610e7d565b820191906000526020600020905b815481529060010190602001808311610e6057829003601f168201915b505050505093509450945094509450945091939590929450565b6000600254905090565b600047905090565b828054610eb5906116de565b90600052602060002090601f016020900481019282610ed75760008555610f1e565b82601f10610ef057805160ff1916838001178555610f1e565b82800160010185558215610f1e579182015b82811115610f1d578251825591602001919060010190610f02565b5b509050610f2b9190610f2f565b5090565b5b80821115610f48576000816000905550600101610f30565b5090565b6000610f5f610f5a8461153e565b611519565b905082815260208101848484011115610f7757600080fd5b610f8284828561169c565b509392505050565b600081359050610f9981611947565b92915050565b600081519050610fae8161195e565b92915050565b600082601f830112610fc557600080fd5b8135610fd5848260208601610f4c565b91505092915050565b600081359050610fed81611975565b92915050565b6000806000806080858703121561100957600080fd5b600061101787828801610f8a565b945050602085013567ffffffffffffffff81111561103457600080fd5b61104087828801610fb4565b935050604061105187828801610fde565b925050606061106287828801610fde565b91505092959194509250565b60006020828403121561108057600080fd5b600061108e84828501610f9f565b91505092915050565b6000602082840312156110a957600080fd5b600082013567ffffffffffffffff8111156110c357600080fd5b6110cf84828501610fb4565b91505092915050565b6000602082840312156110ea57600080fd5b60006110f884828501610fde565b91505092915050565b61110a81611666565b82525050565b6111198161160c565b82525050565b61112881611630565b82525050565b6000815461113b816116de565b611145818661158f565b945060018216600081146111605760018114611171576111a4565b60ff198316865281860193506111a4565b61117a8561156f565b60005b8381101561119c5781548189015260018201915060208101905061117d565b838801955050505b50505092915050565b60006111b882611584565b6111c2818561159a565b93506111d28185602086016116ab565b6111db81611817565b840191505092915050565b60006111f182611584565b6111fb81856115ab565b935061120b8185602086016116ab565b80840191505092915050565b6000611224600d8361159a565b915061122f82611828565b602082019050919050565b6000611247601b8361159a565b915061125282611851565b602082019050919050565b600061126a60178361159a565b91506112758261187a565b602082019050919050565b600061128d601b8361159a565b9150611298826118a3565b602082019050919050565b60006112b0601e8361159a565b91506112bb826118cc565b602082019050919050565b60006112d3601b8361159a565b91506112de826118f5565b602082019050919050565b60006112f660118361159a565b91506113018261191e565b602082019050919050565b6113158161165c565b82525050565b6000611327828461112e565b915081905092915050565b600061133e82846111e6565b915081905092915050565b600060208201905061135e6000830184611110565b92915050565b60006060820190506113796000830186611110565b6113866020830185611101565b611393604083018461130c565b949350505050565b600060a0820190506113b06000830188611110565b81810360208301526113c281876111ad565b90506113d1604083018661130c565b6113de606083018561130c565b6113eb608083018461111f565b9695505050505050565b600060408201905061140a6000830185611110565b611417602083018461130c565b9392505050565b6000602082019050818103600083015261143781611217565b9050919050565b600060208201905081810360008301526114578161123a565b9050919050565b600060208201905081810360008301526114778161125d565b9050919050565b6000602082019050818103600083015261149781611280565b9050919050565b600060208201905081810360008301526114b7816112a3565b9050919050565b600060208201905081810360008301526114d7816112c6565b9050919050565b600060208201905081810360008301526114f7816112e9565b9050919050565b6000602082019050611513600083018461130c565b92915050565b6000611523611534565b905061152f8282611710565b919050565b6000604051905090565b600067ffffffffffffffff821115611559576115586117e8565b5b61156282611817565b9050602081019050919050565b60008190508160005260206000209050919050565b600081519050919050565b600081905092915050565b600082825260208201905092915050565b600081905092915050565b60006115c18261165c565b91506115cc8361165c565b9250827fffffffffffffffffffffffffffffffffffffffffffffffffffffffffffffffff038211156116015761160061178a565b5b828201905092915050565b60006116178261163c565b9050919050565b60006116298261163c565b9050919050565b60008115159050919050565b600073ffffffffffffffffffffffffffffffffffffffff82169050919050565b6000819050919050565b600061167182611678565b9050919050565b60006116838261168a565b9050919050565b60006116958261163c565b9050919050565b82818337600083830152505050565b60005b838110156116c95780820151818401526020810190506116ae565b838111156116d8576000848401525b50505050565b600060028204905060018216806116f657607f821691505b6020821081141561170a576117096117b9565b5b50919050565b61171982611817565b810181811067ffffffffffffffff82111715611738576117376117e8565b5b80604052505050565b600061174c8261165c565b91507fffffffffffffffffffffffffffffffffffffffffffffffffffffffffffffffff82141561177f5761177e61178a565b5b600182019050919050565b7f4e487b7100000000000000000000000000000000000000000000000000000000600052601160045260246000fd5b7f4e487b7100000000000000000000000000000000000000000000000000000000600052602260045260246000fd5b7f4e487b7100000000000000000000000000000000000000000000000000000000600052604160045260246000fd5b6000601f19601f8301169050919050565b7f5061696420416c72656164792e00000000000000000000000000000000000000600082015250565b7f43616e6e6f74207769746864726177207a65726f2076616c75652e0000000000600082015250565b7f4f6e6c79206f776e65722063616e20616464206b69642e000000000000000000600082015250565b7f4f6e6c792076616c6964206b69642063616e2077697468647261770000000000600082015250565b7f536f72727920596f752063616e6e6f74207769746864726177206e6f772e0000600082015250565b7f4475646520596f752063616e742061646420796f757273656c662e0000000000600082015250565b7f4b696420616c7265616479206578697374000000000000000000000000000000600082015250565b6119508161161e565b811461195b57600080fd5b50565b61196781611630565b811461197257600080fd5b50565b61197e8161165c565b811461198957600080fd5b5056fea264697066735822122045434963ddd14922b005f4d0cde4e37b4b14373688c30c5e37dc7a9c3e4508a764736f6c63430008030033",
  "immutableReferences": {},
  "source": "// SPDX-License-Identifier: MIT\npragma solidity >=0.8.0 <0.9.0;\n\ninterface IERC20Token {\n  function transfer(address, uint256) external returns (bool);\n  function approve(address, uint256) external returns (bool);\n  function transferFrom(address, address, uint256) external returns (bool);\n  function totalSupply() external view returns (uint256);\n  function balanceOf(address) external view returns (uint256);\n  function allowance(address, address) external view returns (uint256);\n\n  event Transfer(address indexed from, address indexed to, uint256 value);\n  event Approval(address indexed owner, address indexed spender, uint256 value);\n}\n\ncontract Trust{\n\n    address internal cUsdTokenAddress = 0x874069Fa1Eb16D44d622F2e0Ca25eeA172369bC1;\n    address internal admin; // Owner of the contract\n    uint internal childCount = 0;\n\n    //an enumeration to make sure kid is not added twice\n    enum Status {NOT_ADDED, IS_ADDED}\n    Status status = Status.NOT_ADDED;\n\n    //event to trigger that a kid has been registered\n    event Registered (\n        address indexed by,\n        address indexed who,\n        uint when\n        );\n\n    //Kid struct type to store kid needed attributes\n    struct Kid {\n\n        address payable child;\n        string name;\n        uint amount;\n        uint timeToMaturity;\n        bool paid;\n        Status status;\n    }\n\n    mapping (uint => Kid) internal Kids;\n    mapping (string => uint) public KidsIndex;\n\n\n  constructor() {\n    admin = msg.sender;\n  }\n\n    function addKid (address payable _kid,\n                    string memory _name,\n                    uint _amount,\n                    uint _timeToMaturity) public payable {\n\n        uint timeToMaturity = block.timestamp + _timeToMaturity;\n        bool _paid = false;\n\n        require (msg.sender == admin, \"Only owner can add kid.\");\n        require (Kids[childCount].status == Status.NOT_ADDED, \"Kid already exist\");\n        require ( _kid != msg.sender, \"Dude You cant add yourself.\");\n\n\n        IERC20Token(cUsdTokenAddress).transferFrom(msg.sender, payable(address(this)), _amount);\n\n        Kids[childCount] = Kid(payable(_kid), _name, _amount, timeToMaturity, _paid, Status.IS_ADDED);\n        KidsIndex[_name] = childCount;\n\n\n        emit Registered(msg.sender, _kid, block.timestamp);\n        childCount++;\n    }\n\n    function getKid(string memory _name) view public returns(\n        address child,\n        string memory name,\n        uint amount,\n        uint timeToMaturity,\n        bool paid ){\n\n        require (keccak256(bytes(_name)) == keccak256(bytes(Kids[KidsIndex[_name]].name)));\n        return (\n            Kids[KidsIndex[_name]].child,\n            Kids[KidsIndex[_name]].name,\n            Kids[KidsIndex[_name]].amount,\n            Kids[KidsIndex[_name]].timeToMaturity,\n            Kids[KidsIndex[_name]].paid\n            );\n    }\n\n    function getKid(uint _index) view public returns(\n        address child,\n        string memory name,\n        uint amount,\n        uint timeToMaturity,\n        bool paid ){\n\n        return (\n            Kids[_index].child,\n            Kids[_index].name,\n            Kids[_index].amount,\n            Kids[_index].timeToMaturity,\n            Kids[_index].paid\n            );\n    }\n\n    function withdrawAmount(string memory _name) public {\n\n        address _child = payable(msg.sender);\n\n        //only the kid can withdraw his money deposited\n        require (Kids[KidsIndex[_name]].child == _child, \"Only valid kid can withdraw\");\n        require (Kids[KidsIndex[_name]].amount > 0, \"Cannot withdraw zero value.\");\n        require (Kids[KidsIndex[_name]].paid == false, \"Paid Already.\");\n        require (Kids[KidsIndex[_name]].timeToMaturity < block.timestamp, \"Sorry You cannot withdraw now.\");\n\n        IERC20Token(cUsdTokenAddress).transfer(_child, Kids[KidsIndex[_name]].amount);\n        Kids[KidsIndex[_name]].paid = true;\n    }\n\n    function getChildCount() view public returns(uint){\n        return childCount;\n    }\n\n    function showKidAmount(string memory _name) view public returns(uint){\n        return Kids[KidsIndex[_name]].amount;\n    }\n\n    function showContractAmount() view public returns(uint){\n        return address(this).balance;\n    }\n\n    function getAdmin() view public returns(address){\n        return admin;\n    }\n\n}\n",
  "sourcePath": "/home/abbracx/Documents/celo-trust-dapp/contracts/Trust.sol",
  "compiler": {
    "name": "solc",
    "version": "0.8.3+commit.8d00100c.Emscripten.clang"
  },
  "schemaVersion": "3.3.4",
  "updatedAt": "2021-08-25T04:41:03.859Z",
  "networkType": "ethereum",
  "devdoc": {
    "kind": "dev",
    "methods": {},
    "version": 1
  },
  "userdoc": {
    "kind": "user",
    "methods": {},
    "version": 1
  }
}