{
  "contractName": "Trust",
  "abi": [
    {
      "inputs": [],
      "stateMutability": "nonpayable",
      "type": "constructor"
    },
    {
      "anonymous": false,
      "inputs": [
        {
          "indexed": true,
          "internalType": "address",
          "name": "by",
          "type": "address"
        },
        {
          "indexed": true,
          "internalType": "address",
          "name": "who",
          "type": "address"
        },
        {
          "indexed": false,
          "internalType": "uint256",
          "name": "when",
          "type": "uint256"
        }
      ],
      "name": "Registered",
      "type": "event"
    },
    {
      "inputs": [
        {
          "internalType": "string",
          "name": "",
          "type": "string"
        }
      ],
      "name": "KidsIndex",
      "outputs": [
        {
          "internalType": "uint256",
          "name": "",
          "type": "uint256"
        }
      ],
      "stateMutability": "view",
      "type": "function",
      "constant": true
    },
    {
      "inputs": [
        {
          "internalType": "address payable",
          "name": "_kid",
          "type": "address"
        },
        {
          "internalType": "string",
          "name": "_name",
          "type": "string"
        },
        {
          "internalType": "uint256",
          "name": "_amount",
          "type": "uint256"
        },
        {
          "internalType": "uint256",
          "name": "_timeToMaturity",
          "type": "uint256"
        }
      ],
      "name": "addKid",
      "outputs": [],
      "stateMutability": "payable",
      "type": "function",
      "payable": true
    },
    {
      "inputs": [
        {
          "internalType": "string",
          "name": "_name",
          "type": "string"
        }
      ],
      "name": "getKid",
      "outputs": [
        {
          "internalType": "address",
          "name": "child",
          "type": "address"
        },
        {
          "internalType": "string",
          "name": "name",
          "type": "string"
        },
        {
          "internalType": "uint256",
          "name": "amount",
          "type": "uint256"
        },
        {
          "internalType": "uint256",
          "name": "timeToMaturity",
          "type": "uint256"
        },
        {
          "internalType": "bool",
          "name": "paid",
          "type": "bool"
        }
      ],
      "stateMutability": "view",
      "type": "function",
      "constant": true
    },
    {
      "inputs": [
        {
          "internalType": "uint256",
          "name": "_index",
          "type": "uint256"
        }
      ],
      "name": "getKid",
      "outputs": [
        {
          "internalType": "address",
          "name": "child",
          "type": "address"
        },
        {
          "internalType": "string",
          "name": "name",
          "type": "string"
        },
        {
          "internalType": "uint256",
          "name": "amount",
          "type": "uint256"
        },
        {
          "internalType": "uint256",
          "name": "timeToMaturity",
          "type": "uint256"
        },
        {
          "internalType": "bool",
          "name": "paid",
          "type": "bool"
        }
      ],
      "stateMutability": "view",
      "type": "function",
      "constant": true
    },
    {
      "inputs": [
        {
          "internalType": "string",
          "name": "_name",
          "type": "string"
        }
      ],
      "name": "withdrawAmount",
      "outputs": [],
      "stateMutability": "nonpayable",
      "type": "function"
    },
    {
      "inputs": [],
      "name": "getChildCount",
      "outputs": [
        {
          "internalType": "uint256",
          "name": "",
          "type": "uint256"
        }
      ],
      "stateMutability": "view",
      "type": "function",
      "constant": true
    },
    {
      "inputs": [
        {
          "internalType": "string",
          "name": "_name",
          "type": "string"
        }
      ],
      "name": "showKidAmount",
      "outputs": [
        {
          "internalType": "uint256",
          "name": "",
          "type": "uint256"
        }
      ],
      "stateMutability": "view",
      "type": "function",
      "constant": true
    },
    {
      "inputs": [],
      "name": "showContractAmount",
      "outputs": [
        {
          "internalType": "uint256",
          "name": "",
          "type": "uint256"
        }
      ],
      "stateMutability": "view",
      "type": "function",
      "constant": true
    },
    {
      "inputs": [],
      "name": "getAdmin",
      "outputs": [
        {
          "internalType": "address",
          "name": "",
          "type": "address"
        }
      ],
      "stateMutability": "view",
      "type": "function",
      "constant": true
    }
  ],
  "bytecode": "0x608060405273874069fa1eb16d44d622f2e0ca25eea172369bc16000806101000a81548173ffffffffffffffffffffffffffffffffffffffff021916908373ffffffffffffffffffffffffffffffffffffffff16021790555060006002556000600360006101000a81548160ff021916908360018111156100a9577f4e487b7100000000000000000000000000000000000000000000000000000000600052602160045260246000fd5b02179055503480156100ba57600080fd5b5033600160006101000a81548173ffffffffffffffffffffffffffffffffffffffff021916908373ffffffffffffffffffffffffffffffffffffffff160217905550611a998061010b6000396000f3fe6080604052600436106100865760003560e01c80637a232e7b116100595780637a232e7b146101505780638abad6ec1461018d578063943996be146101b6578063a2ed365b146101f7578063f25354431461022257610086565b80630f851d191461008b5780632109db2f146100c85780633f12b8ad146101095780636e9960c314610125575b600080fd5b34801561009757600080fd5b506100b260048036038101906100ad9190611145565b61024d565b6040516100bf91906115d5565b60405180910390f35b3480156100d457600080fd5b506100ef60048036038101906100ea9190611145565b61028b565b604051610100959493929190611472565b60405180910390f35b610123600480360381019061011e91906110a1565b6104c3565b005b34801561013157600080fd5b5061013a610a37565b60405161014791906113f7565b60405180910390f35b34801561015c57600080fd5b5061017760048036038101906101729190611145565b610a61565b60405161018491906115d5565b60405180910390f35b34801561019957600080fd5b506101b460048036038101906101af9190611145565b610a8f565b005b3480156101c257600080fd5b506101dd60048036038101906101d89190611186565b610dfe565b6040516101ee959493929190611472565b60405180910390f35b34801561020357600080fd5b5061020c610f45565b60405161021991906115d5565b60405180910390f35b34801561022e57600080fd5b50610237610f4f565b60405161024491906115d5565b60405180910390f35b60006004600060058460405161026391906113e0565b9081526020016040518091039020548152602001908152602001600020600201549050919050565b600060606000806000600460006005886040516102a891906113e0565b90815260200160405180910390205481526020019081526020016000206001016040516102d591906113c9565b60405180910390208680519060200120146102ef57600080fd5b6004600060058860405161030391906113e0565b908152602001604051809103902054815260200190815260200160002060000160009054906101000a900473ffffffffffffffffffffffffffffffffffffffff166004600060058960405161035891906113e0565b90815260200160405180910390205481526020019081526020016000206001016004600060058a60405161038c91906113e0565b9081526020016040518091039020548152602001908152602001600020600201546004600060058b6040516103c191906113e0565b9081526020016040518091039020548152602001908152602001600020600301546004600060058c6040516103f691906113e0565b908152602001604051809103902054815260200190815260200160002060040160009054906101000a900460ff16838054610430906117b5565b80601f016020809104026020016040519081016040528092919081815260200182805461045c906117b5565b80156104a95780601f1061047e576101008083540402835291602001916104a9565b820191906000526020600020905b81548152906001019060200180831161048c57829003601f168201915b505050505093509450945094509450945091939590929450565b600081426104d1919061168d565b90506000600160009054906101000a900473ffffffffffffffffffffffffffffffffffffffff1673ffffffffffffffffffffffffffffffffffffffff163373ffffffffffffffffffffffffffffffffffffffff1614610565576040517f08c379a000000000000000000000000000000000000000000000000000000000815260040161055c90611535565b60405180910390fd5b6000600181111561059f577f4e487b7100000000000000000000000000000000000000000000000000000000600052602160045260246000fd5b60046000600254815260200190815260200160002060040160019054906101000a900460ff1660018111156105fd577f4e487b7100000000000000000000000000000000000000000000000000000000600052602160045260246000fd5b1461063d576040517f08c379a0000000000000000000000000000000000000000000000000000000008152600401610634906115b5565b60405180910390fd5b3373ffffffffffffffffffffffffffffffffffffffff168673ffffffffffffffffffffffffffffffffffffffff1614156106ac576040517f08c379a00000000000000000000000000000000000000000000000000000000081526004016106a390611595565b60405180910390fd5b60008054906101000a900473ffffffffffffffffffffffffffffffffffffffff1673ffffffffffffffffffffffffffffffffffffffff1663095ea7b330866040518363ffffffff1660e01b81526004016107079291906114cc565b602060405180830381600087803b15801561072157600080fd5b505af1158015610735573d6000803e3d6000fd5b505050506040513d601f19601f82011682018060405250810190610759919061111c565b5060008054906101000a900473ffffffffffffffffffffffffffffffffffffffff1673ffffffffffffffffffffffffffffffffffffffff166323b872dd3330876040518463ffffffff1660e01b81526004016107b79392919061143b565b602060405180830381600087803b1580156107d157600080fd5b505af11580156107e5573d6000803e3d6000fd5b505050506040513d601f19601f82011682018060405250810190610809919061111c565b506040518060c001604052808773ffffffffffffffffffffffffffffffffffffffff1681526020018681526020018581526020018381526020018215158152602001600180811115610884577f4e487b7100000000000000000000000000000000000000000000000000000000600052602160045260246000fd5b81525060046000600254815260200190815260200160002060008201518160000160006101000a81548173ffffffffffffffffffffffffffffffffffffffff021916908373ffffffffffffffffffffffffffffffffffffffff16021790555060208201518160010190805190602001906108ff929190610f57565b50604082015181600201556060820151816003015560808201518160040160006101000a81548160ff02191690831515021790555060a08201518160040160016101000a81548160ff02191690836001811115610985577f4e487b7100000000000000000000000000000000000000000000000000000000600052602160045260246000fd5b02179055509050506002546005866040516109a091906113e0565b9081526020016040518091039020819055508573ffffffffffffffffffffffffffffffffffffffff163373ffffffffffffffffffffffffffffffffffffffff167f199098452639b249bef6f727bc09ce903cece47ca72a8518bef9367ad39b6de742604051610a0f91906115d5565b60405180910390a360026000815480929190610a2a90611818565b9190505550505050505050565b6000600160009054906101000a900473ffffffffffffffffffffffffffffffffffffffff16905090565b6005818051602081018201805184825260208301602085012081835280955050505050506000915090505481565b60003390508073ffffffffffffffffffffffffffffffffffffffff1660046000600585604051610abf91906113e0565b908152602001604051809103902054815260200190815260200160002060000160009054906101000a900473ffffffffffffffffffffffffffffffffffffffff1673ffffffffffffffffffffffffffffffffffffffff1614610b56576040517f08c379a0000000000000000000000000000000000000000000000000000000008152600401610b4d90611555565b60405180910390fd5b600060046000600585604051610b6c91906113e0565b90815260200160405180910390205481526020019081526020016000206002015411610bcd576040517f08c379a0000000000000000000000000000000000000000000000000000000008152600401610bc490611515565b60405180910390fd5b6000151560046000600585604051610be591906113e0565b908152602001604051809103902054815260200190815260200160002060040160009054906101000a900460ff16151514610c55576040517f08c379a0000000000000000000000000000000000000000000000000000000008152600401610c4c906114f5565b60405180910390fd5b4260046000600585604051610c6a91906113e0565b90815260200160405180910390205481526020019081526020016000206003015410610ccb576040517f08c379a0000000000000000000000000000000000000000000000000000000008152600401610cc290611575565b60405180910390fd5b60008054906101000a900473ffffffffffffffffffffffffffffffffffffffff1673ffffffffffffffffffffffffffffffffffffffff1663a9059cbb8260046000600587604051610d1c91906113e0565b9081526020016040518091039020548152602001908152602001600020600201546040518363ffffffff1660e01b8152600401610d5a929190611412565b602060405180830381600087803b158015610d7457600080fd5b505af1158015610d88573d6000803e3d6000fd5b505050506040513d601f19601f82011682018060405250810190610dac919061111c565b50600160046000600585604051610dc391906113e0565b908152602001604051809103902054815260200190815260200160002060040160006101000a81548160ff0219169083151502179055505050565b6000606060008060006004600087815260200190815260200160002060000160009054906101000a900473ffffffffffffffffffffffffffffffffffffffff16600460008881526020019081526020016000206001016004600089815260200190815260200160002060020154600460008a815260200190815260200160002060030154600460008b815260200190815260200160002060040160009054906101000a900460ff16838054610eb2906117b5565b80601f0160208091040260200160405190810160405280929190818152602001828054610ede906117b5565b8015610f2b5780601f10610f0057610100808354040283529160200191610f2b565b820191906000526020600020905b815481529060010190602001808311610f0e57829003601f168201915b505050505093509450945094509450945091939590929450565b6000600254905090565b600047905090565b828054610f63906117b5565b90600052602060002090601f016020900481019282610f855760008555610fcc565b82601f10610f9e57805160ff1916838001178555610fcc565b82800160010185558215610fcc579182015b82811115610fcb578251825591602001919060010190610fb0565b5b509050610fd99190610fdd565b5090565b5b80821115610ff6576000816000905550600101610fde565b5090565b600061100d61100884611615565b6115f0565b90508281526020810184848401111561102557600080fd5b611030848285611773565b509392505050565b60008135905061104781611a1e565b92915050565b60008151905061105c81611a35565b92915050565b600082601f83011261107357600080fd5b8135611083848260208601610ffa565b91505092915050565b60008135905061109b81611a4c565b92915050565b600080600080608085870312156110b757600080fd5b60006110c587828801611038565b945050602085013567ffffffffffffffff8111156110e257600080fd5b6110ee87828801611062565b93505060406110ff8782880161108c565b92505060606111108782880161108c565b91505092959194509250565b60006020828403121561112e57600080fd5b600061113c8482850161104d565b91505092915050565b60006020828403121561115757600080fd5b600082013567ffffffffffffffff81111561117157600080fd5b61117d84828501611062565b91505092915050565b60006020828403121561119857600080fd5b60006111a68482850161108c565b91505092915050565b6111b88161173d565b82525050565b6111c7816116e3565b82525050565b6111d681611707565b82525050565b600081546111e9816117b5565b6111f38186611666565b9450600182166000811461120e576001811461121f57611252565b60ff19831686528186019350611252565b61122885611646565b60005b8381101561124a5781548189015260018201915060208101905061122b565b838801955050505b50505092915050565b60006112668261165b565b6112708185611671565b9350611280818560208601611782565b611289816118ee565b840191505092915050565b600061129f8261165b565b6112a98185611682565b93506112b9818560208601611782565b80840191505092915050565b60006112d2600d83611671565b91506112dd826118ff565b602082019050919050565b60006112f5601b83611671565b915061130082611928565b602082019050919050565b6000611318601783611671565b915061132382611951565b602082019050919050565b600061133b601b83611671565b91506113468261197a565b602082019050919050565b600061135e601e83611671565b9150611369826119a3565b602082019050919050565b6000611381601b83611671565b915061138c826119cc565b602082019050919050565b60006113a4601183611671565b91506113af826119f5565b602082019050919050565b6113c381611733565b82525050565b60006113d582846111dc565b915081905092915050565b60006113ec8284611294565b915081905092915050565b600060208201905061140c60008301846111be565b92915050565b600060408201905061142760008301856111af565b61143460208301846113ba565b9392505050565b600060608201905061145060008301866111be565b61145d60208301856111be565b61146a60408301846113ba565b949350505050565b600060a08201905061148760008301886111be565b8181036020830152611499818761125b565b90506114a860408301866113ba565b6114b560608301856113ba565b6114c260808301846111cd565b9695505050505050565b60006040820190506114e160008301856111be565b6114ee60208301846113ba565b9392505050565b6000602082019050818103600083015261150e816112c5565b9050919050565b6000602082019050818103600083015261152e816112e8565b9050919050565b6000602082019050818103600083015261154e8161130b565b9050919050565b6000602082019050818103600083015261156e8161132e565b9050919050565b6000602082019050818103600083015261158e81611351565b9050919050565b600060208201905081810360008301526115ae81611374565b9050919050565b600060208201905081810360008301526115ce81611397565b9050919050565b60006020820190506115ea60008301846113ba565b92915050565b60006115fa61160b565b905061160682826117e7565b919050565b6000604051905090565b600067ffffffffffffffff8211156116305761162f6118bf565b5b611639826118ee565b9050602081019050919050565b60008190508160005260206000209050919050565b600081519050919050565b600081905092915050565b600082825260208201905092915050565b600081905092915050565b600061169882611733565b91506116a383611733565b9250827fffffffffffffffffffffffffffffffffffffffffffffffffffffffffffffffff038211156116d8576116d7611861565b5b828201905092915050565b60006116ee82611713565b9050919050565b600061170082611713565b9050919050565b60008115159050919050565b600073ffffffffffffffffffffffffffffffffffffffff82169050919050565b6000819050919050565b60006117488261174f565b9050919050565b600061175a82611761565b9050919050565b600061176c82611713565b9050919050565b82818337600083830152505050565b60005b838110156117a0578082015181840152602081019050611785565b838111156117af576000848401525b50505050565b600060028204905060018216806117cd57607f821691505b602082108114156117e1576117e0611890565b5b50919050565b6117f0826118ee565b810181811067ffffffffffffffff8211171561180f5761180e6118bf565b5b80604052505050565b600061182382611733565b91507fffffffffffffffffffffffffffffffffffffffffffffffffffffffffffffffff82141561185657611855611861565b5b600182019050919050565b7f4e487b7100000000000000000000000000000000000000000000000000000000600052601160045260246000fd5b7f4e487b7100000000000000000000000000000000000000000000000000000000600052602260045260246000fd5b7f4e487b7100000000000000000000000000000000000000000000000000000000600052604160045260246000fd5b6000601f19601f8301169050919050565b7f5061696420416c72656164792e00000000000000000000000000000000000000600082015250565b7f43616e6e6f74207769746864726177207a65726f2076616c75652e0000000000600082015250565b7f4f6e6c79206f776e65722063616e20616464206b69642e000000000000000000600082015250565b7f4f6e6c792076616c6964206b69642063616e2077697468647261770000000000600082015250565b7f536f72727920596f752063616e6e6f74207769746864726177206e6f772e0000600082015250565b7f4475646520596f752063616e742061646420796f757273656c662e0000000000600082015250565b7f4b696420616c7265616479206578697374000000000000000000000000000000600082015250565b611a27816116f5565b8114611a3257600080fd5b50565b611a3e81611707565b8114611a4957600080fd5b50565b611a5581611733565b8114611a6057600080fd5b5056fea2646970667358221220b5f731f8db45c374b9dc5c0c6de4fea05d427ce2e95149fee6853227d00e093564736f6c63430008030033",
  "immutableReferences": {},
  "source": "// SPDX-License-Identifier: MIT\npragma solidity >=0.8.0 <0.9.0;\n\ninterface IERC20Token {\n  function transfer(address, uint256) external returns (bool);\n  function approve(address, uint256) external returns (bool);\n  function transferFrom(address, address, uint256) external returns (bool);\n  function totalSupply() external view returns (uint256);\n  function balanceOf(address) external view returns (uint256);\n  function allowance(address, address) external view returns (uint256);\n\n  event Transfer(address indexed from, address indexed to, uint256 value);\n  event Approval(address indexed owner, address indexed spender, uint256 value);\n}\n\ncontract Trust{\n\n    address internal cUsdTokenAddress = 0x874069Fa1Eb16D44d622F2e0Ca25eeA172369bC1;\n    address internal admin; // Owner of the contract\n    uint internal childCount = 0;\n\n    //an enumeration to make sure kid is not added twice\n    enum Status {NOT_ADDED, IS_ADDED}\n    Status status = Status.NOT_ADDED;\n\n    //event to trigger that a kid has been registered\n    event Registered (\n        address indexed by,\n        address indexed who,\n        uint when\n        );\n\n    //Kid struct type to store kid needed attributes\n    struct Kid {\n\n        address payable child;\n        string name;\n        uint amount;\n        uint timeToMaturity;\n        bool paid;\n        Status status;\n    }\n\n    mapping (uint => Kid) internal Kids;\n    mapping (string => uint) public KidsIndex;\n\n\n  constructor() {\n    admin = msg.sender;\n  }\n\n    function addKid (address payable _kid,\n                    string memory _name,\n                    uint _amount,\n                    uint _timeToMaturity) external payable {\n\n        uint timeToMaturity = block.timestamp + _timeToMaturity;\n        bool _paid = false;\n\n        require (msg.sender == admin, \"Only owner can add kid.\");\n        require (Kids[childCount].status == Status.NOT_ADDED, \"Kid already exist\");\n        require ( _kid != msg.sender, \"Dude You cant add yourself.\");\n\n        IERC20Token(cUsdTokenAddress).approve(address(this), _amount);\n        IERC20Token(cUsdTokenAddress).transferFrom(msg.sender, address(this), _amount);\n\n        Kids[childCount] = Kid(payable(_kid), _name, _amount, timeToMaturity, _paid, Status.IS_ADDED);\n        KidsIndex[_name] = childCount;\n\n\n        emit Registered(msg.sender, _kid, block.timestamp);\n        childCount++;\n    }\n\n    function getKid(string memory _name) view external returns(\n        address child,\n        string memory name,\n        uint amount,\n        uint timeToMaturity,\n        bool paid ){\n\n        require (keccak256(bytes(_name)) == keccak256(bytes(Kids[KidsIndex[_name]].name)));\n        return (\n            Kids[KidsIndex[_name]].child,\n            Kids[KidsIndex[_name]].name,\n            Kids[KidsIndex[_name]].amount,\n            Kids[KidsIndex[_name]].timeToMaturity,\n            Kids[KidsIndex[_name]].paid\n            );\n    }\n\n    function getKid(uint _index) view external returns(\n        address child,\n        string memory name,\n        uint amount,\n        uint timeToMaturity,\n        bool paid ){\n\n        return (\n            Kids[_index].child,\n            Kids[_index].name,\n            Kids[_index].amount,\n            Kids[_index].timeToMaturity,\n            Kids[_index].paid\n            );\n    }\n\n    function withdrawAmount(string memory _name) external {\n\n        address _child = msg.sender;\n\n        //only the kid can withdraw his money deposited\n        require (Kids[KidsIndex[_name]].child == _child, \"Only valid kid can withdraw\");\n        require (Kids[KidsIndex[_name]].amount > 0, \"Cannot withdraw zero value.\");\n        require (Kids[KidsIndex[_name]].paid == false, \"Paid Already.\");\n        require (Kids[KidsIndex[_name]].timeToMaturity < block.timestamp, \"Sorry You cannot withdraw now.\");\n\n        IERC20Token(cUsdTokenAddress).transfer(payable(_child), Kids[KidsIndex[_name]].amount);\n        Kids[KidsIndex[_name]].paid = true;\n    }\n\n    function getChildCount() view external returns(uint){\n        return childCount;\n    }\n\n    function showKidAmount(string memory _name) view external returns(uint){\n        return Kids[KidsIndex[_name]].amount;\n    }\n\n    function showContractAmount() view external returns(uint){\n        return address(this).balance;\n    }\n\n    function getAdmin() view external returns(address){\n        return admin;\n    }\n\n}\n",
  "sourcePath": "/home/abbracx/Documents/celo-trust-dapp/contracts/Trust.sol",
  "compiler": {
    "name": "solc",
    "version": "0.8.3+commit.8d00100c.Emscripten.clang"
  },
  "schemaVersion": "3.3.4",
  "updatedAt": "2021-08-23T19:11:03.796Z",
  "networkType": "ethereum",
  "devdoc": {
    "kind": "dev",
    "methods": {},
    "version": 1
  },
  "userdoc": {
    "kind": "user",
    "methods": {},
    "version": 1
  }
}